:040045007F0A7E00B0
:10004900EF1FAA0670011E4A60107C007D7CED1D21
:0A005900AA0470011C4A60E880F45C
:01006300227A
:10006400D2A0C2A17F327E00120049D2A2C2A32232
:10007400C2A0D2A17F327E00120049C2A2D2A32222
:09009000C2A0C2A1C2A2C2A322B7
:09009900C2A0C2A1D2A2C2A3229E
:0900A200D2A0C2A1C2A2C2A32295
:1000030020B30E12004520B3F730B3FD1200648015
:100013002020B40E12004520B4E630B4FD12007463
:10002300800F20B60C12004520B6D530B6FD120065
:100033009920B7CC12004520B7C630B7FD1200A2F5
:0200430080BE7D
:0300000002008477
:0C008400787FE4F6D8FD758107020003C8
:00000001FF
